{
  "_format": "hh-sol-artifact-1",
  "contractName": "SourceMinter",
  "sourceName": "contracts/SourceMinter.sol",
  "abi": [
    {
      "inputs": [
        {
          "internalType": "address",
          "name": "router",
          "type": "address"
        },
        {
          "internalType": "address",
          "name": "link",
          "type": "address"
        }
      ],
      "stateMutability": "nonpayable",
      "type": "constructor"
    },
    {
      "inputs": [
        {
          "internalType": "address",
          "name": "owner",
          "type": "address"
        },
        {
          "internalType": "address",
          "name": "target",
          "type": "address"
        },
        {
          "internalType": "uint256",
          "name": "value",
          "type": "uint256"
        }
      ],
      "name": "FailedToWithdrawEth",
      "type": "error"
    },
    {
      "anonymous": false,
      "inputs": [
        {
          "indexed": false,
          "internalType": "bytes32",
          "name": "messageId",
          "type": "bytes32"
        }
      ],
      "name": "MessageSent",
      "type": "event"
    },
    {
      "anonymous": false,
      "inputs": [
        {
          "indexed": true,
          "internalType": "address",
          "name": "from",
          "type": "address"
        },
        {
          "indexed": true,
          "internalType": "address",
          "name": "to",
          "type": "address"
        }
      ],
      "name": "OwnershipTransferRequested",
      "type": "event"
    },
    {
      "anonymous": false,
      "inputs": [
        {
          "indexed": true,
          "internalType": "address",
          "name": "from",
          "type": "address"
        },
        {
          "indexed": true,
          "internalType": "address",
          "name": "to",
          "type": "address"
        }
      ],
      "name": "OwnershipTransferred",
      "type": "event"
    },
    {
      "inputs": [],
      "name": "acceptOwnership",
      "outputs": [],
      "stateMutability": "nonpayable",
      "type": "function"
    },
    {
      "inputs": [
        {
          "internalType": "uint64",
          "name": "destinationChainSelector",
          "type": "uint64"
        },
        {
          "internalType": "address",
          "name": "receiver",
          "type": "address"
        },
        {
          "internalType": "enum SourceMinter.PayFeesIn",
          "name": "payFeesIn",
          "type": "uint8"
        },
        {
          "internalType": "string",
          "name": "tokenURI",
          "type": "string"
        }
      ],
      "name": "mint",
      "outputs": [],
      "stateMutability": "nonpayable",
      "type": "function"
    },
    {
      "inputs": [],
      "name": "owner",
      "outputs": [
        {
          "internalType": "address",
          "name": "",
          "type": "address"
        }
      ],
      "stateMutability": "view",
      "type": "function"
    },
    {
      "inputs": [
        {
          "internalType": "address",
          "name": "to",
          "type": "address"
        }
      ],
      "name": "transferOwnership",
      "outputs": [],
      "stateMutability": "nonpayable",
      "type": "function"
    },
    {
      "inputs": [
        {
          "internalType": "address",
          "name": "beneficiary",
          "type": "address"
        }
      ],
      "name": "withdraw",
      "outputs": [],
      "stateMutability": "nonpayable",
      "type": "function"
    },
    {
      "inputs": [
        {
          "internalType": "address",
          "name": "beneficiary",
          "type": "address"
        },
        {
          "internalType": "address",
          "name": "token",
          "type": "address"
        }
      ],
      "name": "withdrawToken",
      "outputs": [],
      "stateMutability": "nonpayable",
      "type": "function"
    },
    {
      "stateMutability": "payable",
      "type": "receive"
    }
  ],
  "bytecode": "0x60c06040523480156200001157600080fd5b5060405162001aa338038062001aa38339818101604052810190620000379190620003e7565b338060008073ffffffffffffffffffffffffffffffffffffffff168273ffffffffffffffffffffffffffffffffffffffff1603620000ac576040517f08c379a0000000000000000000000000000000000000000000000000000000008152600401620000a3906200048f565b60405180910390fd5b816000806101000a81548173ffffffffffffffffffffffffffffffffffffffff021916908373ffffffffffffffffffffffffffffffffffffffff160217905550600073ffffffffffffffffffffffffffffffffffffffff168173ffffffffffffffffffffffffffffffffffffffff1614620001335762000132816200024e60201b60201c565b5b5050508173ffffffffffffffffffffffffffffffffffffffff1660808173ffffffffffffffffffffffffffffffffffffffff16815250508073ffffffffffffffffffffffffffffffffffffffff1660a08173ffffffffffffffffffffffffffffffffffffffff168152505060a05173ffffffffffffffffffffffffffffffffffffffff1663095ea7b36080517fffffffffffffffffffffffffffffffffffffffffffffffffffffffffffffffff6040518363ffffffff1660e01b8152600401620001ff929190620004dd565b6020604051808303816000875af11580156200021f573d6000803e3d6000fd5b505050506040513d601f19601f8201168201806040525081019062000245919062000547565b505050620005eb565b3373ffffffffffffffffffffffffffffffffffffffff168173ffffffffffffffffffffffffffffffffffffffff1603620002bf576040517f08c379a0000000000000000000000000000000000000000000000000000000008152600401620002b690620005c9565b60405180910390fd5b80600160006101000a81548173ffffffffffffffffffffffffffffffffffffffff021916908373ffffffffffffffffffffffffffffffffffffffff1602179055508073ffffffffffffffffffffffffffffffffffffffff1660008054906101000a900473ffffffffffffffffffffffffffffffffffffffff1673ffffffffffffffffffffffffffffffffffffffff167fed8889f560326eb138920d842192f0eb3dd22b4f139c87a2c57538e05bae127860405160405180910390a350565b600080fd5b600073ffffffffffffffffffffffffffffffffffffffff82169050919050565b6000620003af8262000382565b9050919050565b620003c181620003a2565b8114620003cd57600080fd5b50565b600081519050620003e181620003b6565b92915050565b600080604083850312156200040157620004006200037d565b5b60006200041185828601620003d0565b92505060206200042485828601620003d0565b9150509250929050565b600082825260208201905092915050565b7f43616e6e6f7420736574206f776e657220746f207a65726f0000000000000000600082015250565b6000620004776018836200042e565b915062000484826200043f565b602082019050919050565b60006020820190508181036000830152620004aa8162000468565b9050919050565b620004bc81620003a2565b82525050565b6000819050919050565b620004d781620004c2565b82525050565b6000604082019050620004f46000830185620004b1565b620005036020830184620004cc565b9392505050565b60008115159050919050565b62000521816200050a565b81146200052d57600080fd5b50565b600081519050620005418162000516565b92915050565b60006020828403121562000560576200055f6200037d565b5b6000620005708482850162000530565b91505092915050565b7f43616e6e6f74207472616e7366657220746f2073656c66000000000000000000600082015250565b6000620005b16017836200042e565b9150620005be8262000579565b602082019050919050565b60006020820190508181036000830152620005e481620005a2565b9050919050565b60805160a0516114846200061f600039600061046e0152600081816104c20152818161058d015261063201526114846000f3fe6080604052600436106100595760003560e01c80633aeac4e11461006557806351cff8d91461008e57806358bad867146100b757806379ba5097146100e05780638da5cb5b146100f7578063f2fde38b1461012257610060565b3661006057005b600080fd5b34801561007157600080fd5b5061008c60048036038101906100879190610b42565b61014b565b005b34801561009a57600080fd5b506100b560048036038101906100b09190610b82565b610255565b005b3480156100c357600080fd5b506100de60048036038101906100d99190610d5a565b610319565b005b3480156100ec57600080fd5b506100f5610712565b005b34801561010357600080fd5b5061010c6108a7565b6040516101199190610dec565b60405180910390f35b34801561012e57600080fd5b5061014960048036038101906101449190610b82565b6108d0565b005b6101536108e4565b60008173ffffffffffffffffffffffffffffffffffffffff166370a08231306040518263ffffffff1660e01b815260040161018e9190610dec565b602060405180830381865afa1580156101ab573d6000803e3d6000fd5b505050506040513d601f19601f820116820180604052508101906101cf9190610e3d565b90508173ffffffffffffffffffffffffffffffffffffffff1663a9059cbb84836040518363ffffffff1660e01b815260040161020c929190610e79565b6020604051808303816000875af115801561022b573d6000803e3d6000fd5b505050506040513d601f19601f8201168201806040525081019061024f9190610eda565b50505050565b61025d6108e4565b600047905060008273ffffffffffffffffffffffffffffffffffffffff168260405161028890610f38565b60006040518083038185875af1925050503d80600081146102c5576040519150601f19603f3d011682016040523d82523d6000602084013e6102ca565b606091505b5050905080610314573383836040517f9d11f56300000000000000000000000000000000000000000000000000000000815260040161030b93929190610f4d565b60405180910390fd5b505050565b60006040518060a00160405280856040516020016103379190610dec565b6040516020818303038152906040528152602001338460405160240161035e929190611003565b6040516020818303038152906040527f6a627842000000000000000000000000000000000000000000000000000000007bffffffffffffffffffffffffffffffffffffffffffffffffffffffff19166020820180517bffffffffffffffffffffffffffffffffffffffffffffffffffffffff83818316178352505050508152602001600067ffffffffffffffff8111156103fb576103fa610c2f565b5b60405190808252806020026020018201604052801561043457816020015b610421610aa0565b8152602001906001900390816104195790505b50815260200160018081111561044d5761044c611033565b5b8560018111156104605761045f611033565b5b1461046c57600061048e565b7f00000000000000000000000000000000000000000000000000000000000000005b73ffffffffffffffffffffffffffffffffffffffff16815260200160405180602001604052806000815250815250905060007f000000000000000000000000000000000000000000000000000000000000000073ffffffffffffffffffffffffffffffffffffffff166320487ded87846040518363ffffffff1660e01b815260040161051b92919061124d565b602060405180830381865afa158015610538573d6000803e3d6000fd5b505050506040513d601f19601f8201168201806040525081019061055c9190610e3d565b9050600060018081111561057357610572611033565b5b85600181111561058657610585611033565b5b03610630577f000000000000000000000000000000000000000000000000000000000000000073ffffffffffffffffffffffffffffffffffffffff166396f4e9f988856040518363ffffffff1660e01b81526004016105e692919061124d565b6020604051808303816000875af1158015610605573d6000803e3d6000fd5b505050506040513d601f19601f8201168201806040525081019061062991906112b3565b90506106d2565b7f000000000000000000000000000000000000000000000000000000000000000073ffffffffffffffffffffffffffffffffffffffff166396f4e9f98389866040518463ffffffff1660e01b815260040161068c92919061124d565b60206040518083038185885af11580156106aa573d6000803e3d6000fd5b50505050506040513d601f19601f820116820180604052508101906106cf91906112b3565b90505b7f54791b38f3859327992a1ca0590ad3c0f08feba98d1a4f56ab0dca74d203392a8160405161070191906112ef565b60405180910390a150505050505050565b600160009054906101000a900473ffffffffffffffffffffffffffffffffffffffff1673ffffffffffffffffffffffffffffffffffffffff163373ffffffffffffffffffffffffffffffffffffffff16146107a2576040517f08c379a000000000000000000000000000000000000000000000000000000000815260040161079990611356565b60405180910390fd5b60008060009054906101000a900473ffffffffffffffffffffffffffffffffffffffff169050336000806101000a81548173ffffffffffffffffffffffffffffffffffffffff021916908373ffffffffffffffffffffffffffffffffffffffff1602179055506000600160006101000a81548173ffffffffffffffffffffffffffffffffffffffff021916908373ffffffffffffffffffffffffffffffffffffffff1602179055503373ffffffffffffffffffffffffffffffffffffffff168173ffffffffffffffffffffffffffffffffffffffff167f8be0079c531659141344cd1fd0a4f28419497f9722a3daafe3b4186f6b6457e060405160405180910390a350565b60008060009054906101000a900473ffffffffffffffffffffffffffffffffffffffff16905090565b6108d86108e4565b6108e181610974565b50565b60008054906101000a900473ffffffffffffffffffffffffffffffffffffffff1673ffffffffffffffffffffffffffffffffffffffff163373ffffffffffffffffffffffffffffffffffffffff1614610972576040517f08c379a0000000000000000000000000000000000000000000000000000000008152600401610969906113c2565b60405180910390fd5b565b3373ffffffffffffffffffffffffffffffffffffffff168173ffffffffffffffffffffffffffffffffffffffff16036109e2576040517f08c379a00000000000000000000000000000000000000000000000000000000081526004016109d99061142e565b60405180910390fd5b80600160006101000a81548173ffffffffffffffffffffffffffffffffffffffff021916908373ffffffffffffffffffffffffffffffffffffffff1602179055508073ffffffffffffffffffffffffffffffffffffffff1660008054906101000a900473ffffffffffffffffffffffffffffffffffffffff1673ffffffffffffffffffffffffffffffffffffffff167fed8889f560326eb138920d842192f0eb3dd22b4f139c87a2c57538e05bae127860405160405180910390a350565b6040518060400160405280600073ffffffffffffffffffffffffffffffffffffffff168152602001600081525090565b6000604051905090565b600080fd5b600080fd5b600073ffffffffffffffffffffffffffffffffffffffff82169050919050565b6000610b0f82610ae4565b9050919050565b610b1f81610b04565b8114610b2a57600080fd5b50565b600081359050610b3c81610b16565b92915050565b60008060408385031215610b5957610b58610ada565b5b6000610b6785828601610b2d565b9250506020610b7885828601610b2d565b9150509250929050565b600060208284031215610b9857610b97610ada565b5b6000610ba684828501610b2d565b91505092915050565b600067ffffffffffffffff82169050919050565b610bcc81610baf565b8114610bd757600080fd5b50565b600081359050610be981610bc3565b92915050565b60028110610bfc57600080fd5b50565b600081359050610c0e81610bef565b92915050565b600080fd5b600080fd5b6000601f19601f8301169050919050565b7f4e487b7100000000000000000000000000000000000000000000000000000000600052604160045260246000fd5b610c6782610c1e565b810181811067ffffffffffffffff82111715610c8657610c85610c2f565b5b80604052505050565b6000610c99610ad0565b9050610ca58282610c5e565b919050565b600067ffffffffffffffff821115610cc557610cc4610c2f565b5b610cce82610c1e565b9050602081019050919050565b82818337600083830152505050565b6000610cfd610cf884610caa565b610c8f565b905082815260208101848484011115610d1957610d18610c19565b5b610d24848285610cdb565b509392505050565b600082601f830112610d4157610d40610c14565b5b8135610d51848260208601610cea565b91505092915050565b60008060008060808587031215610d7457610d73610ada565b5b6000610d8287828801610bda565b9450506020610d9387828801610b2d565b9350506040610da487828801610bff565b925050606085013567ffffffffffffffff811115610dc557610dc4610adf565b5b610dd187828801610d2c565b91505092959194509250565b610de681610b04565b82525050565b6000602082019050610e016000830184610ddd565b92915050565b6000819050919050565b610e1a81610e07565b8114610e2557600080fd5b50565b600081519050610e3781610e11565b92915050565b600060208284031215610e5357610e52610ada565b5b6000610e6184828501610e28565b91505092915050565b610e7381610e07565b82525050565b6000604082019050610e8e6000830185610ddd565b610e9b6020830184610e6a565b9392505050565b60008115159050919050565b610eb781610ea2565b8114610ec257600080fd5b50565b600081519050610ed481610eae565b92915050565b600060208284031215610ef057610eef610ada565b5b6000610efe84828501610ec5565b91505092915050565b600081905092915050565b50565b6000610f22600083610f07565b9150610f2d82610f12565b600082019050919050565b6000610f4382610f15565b9150819050919050565b6000606082019050610f626000830186610ddd565b610f6f6020830185610ddd565b610f7c6040830184610e6a565b949350505050565b600081519050919050565b600082825260208201905092915050565b60005b83811015610fbe578082015181840152602081019050610fa3565b60008484015250505050565b6000610fd582610f84565b610fdf8185610f8f565b9350610fef818560208601610fa0565b610ff881610c1e565b840191505092915050565b60006040820190506110186000830185610ddd565b818103602083015261102a8184610fca565b90509392505050565b7f4e487b7100000000000000000000000000000000000000000000000000000000600052602160045260246000fd5b61106b81610baf565b82525050565b600081519050919050565b600082825260208201905092915050565b600061109882611071565b6110a2818561107c565b93506110b2818560208601610fa0565b6110bb81610c1e565b840191505092915050565b600081519050919050565b600082825260208201905092915050565b6000819050602082019050919050565b6110fb81610b04565b82525050565b61110a81610e07565b82525050565b60408201600082015161112660008501826110f2565b5060208201516111396020850182611101565b50505050565b600061114b8383611110565b60408301905092915050565b6000602082019050919050565b600061116f826110c6565b61117981856110d1565b9350611184836110e2565b8060005b838110156111b557815161119c888261113f565b97506111a783611157565b925050600181019050611188565b5085935050505092915050565b600060a08301600083015184820360008601526111df828261108d565b915050602083015184820360208601526111f9828261108d565b915050604083015184820360408601526112138282611164565b915050606083015161122860608601826110f2565b5060808301518482036080860152611240828261108d565b9150508091505092915050565b60006040820190506112626000830185611062565b818103602083015261127481846111c2565b90509392505050565b6000819050919050565b6112908161127d565b811461129b57600080fd5b50565b6000815190506112ad81611287565b92915050565b6000602082840312156112c9576112c8610ada565b5b60006112d78482850161129e565b91505092915050565b6112e98161127d565b82525050565b600060208201905061130460008301846112e0565b92915050565b7f4d7573742062652070726f706f736564206f776e657200000000000000000000600082015250565b6000611340601683610f8f565b915061134b8261130a565b602082019050919050565b6000602082019050818103600083015261136f81611333565b9050919050565b7f4f6e6c792063616c6c61626c65206279206f776e657200000000000000000000600082015250565b60006113ac601683610f8f565b91506113b782611376565b602082019050919050565b600060208201905081810360008301526113db8161139f565b9050919050565b7f43616e6e6f74207472616e7366657220746f2073656c66000000000000000000600082015250565b6000611418601783610f8f565b9150611423826113e2565b602082019050919050565b600060208201905081810360008301526114478161140b565b905091905056fea264697066735822122016273c34f9c28e48dc088270b72cf82414eeb34d75fd9393b37d826bce47346d64736f6c63430008140033",
  "linkReferences": {},
  "deployedLinkReferences": {}
}